:060000000A128A11182902
:10000800F000030EF100031383120B1866200B197E
:100018001F200C181420710E8300F00E700E0900BA
:1000280003138312E1308F00031383127C308E0098
:10003800A70A0C1008008621880123183328A31862
:10004800372823193B28A3193F28231A4328A31A22
:100058004728231B4B282B08870008144F282C08F7
:100068008700881452282E088700081555282F085D
:100078008700881558283008870008165B2831083B
:10008800870088165E282508870008176128260833
:100098008700881764280130A30608000330A306E8
:1000A80008000630A30608000C30A3060800183024
:1000B800A30608003030A30608006030A306080035
:1000C800A3010800061C2622861C2F22061DE421F7
:0400D8000B10080001
:100200008A010A140F3982073F3406345B344F34B5
:1002100066346D347D3407347F346F3477347C3406
:0802200039345E347934713485
:10023000031783168801890103138316051085109F
:1002400005118511051285120513851303138316F5
:100250000614861406150616861206138613031353
:1002600083160710871007118711071287120713CB
:1002700087130313831608108810081188110812B9
:10028000881208138813031383168113031383162C
:10029000151495141515951115129512151395131E
:1002A0008A210313831607309600031383120B1061
:1002B0008B178B158B160B1103138316811281116B
:1002C0000114811401150313831290161016901057
:1002D0001014031383124E3092000A30A4000A3027
:1002E000B7000A30B8000A30B90003138312850141
:1002F00086018701880189013A189121BA18DD2108
:1003000066223822A421B721CA217C29FF3081002E
:100310000B110800031383160F138F160F120F14FF
:100320000800A201A00103102408A2000A30A00ABC
:10033000A20203189729A003A20720080021A50004
:1003400022080021A6000800A201A001031028082D
:10035000A2000A30A00AA2020318AA29A003A20739
:1003600020080021AB0022080021AC000800A201F7
:10037000A00103102908A2000A30A00AA202031853
:10038000BD29A003A20720080021AE0022080021F9
:10039000AF000800A201A00103102A08A2000A3041
:1003A000A00AA2020318D029A003A2072008002156
:1003B000B00022080021B10008000A300021A50089
:1003C0000C300021A6000800A10A3218F829B21842
:1003D000042A3219102AB2191F2A03110130B3005E
:1003E00021083302031DF629861632143A14080038
:1003F00003110230B30021083302031D032A8612C1
:1004000006173210B214080003110330B30021089C
:100410003302031D0F2A86160617B2103215080084
:1004200003110430B30021083302031D1C2A861275
:10043000061386173211B2153A10BA140800A50136
:10044000A6018613B201A101BA010800A40A031192
:1004500015302402031D2E2A0A30A4000800A4032C
:10046000031109302402031D372A1430A4000800A8
:100470002D18472AAD18522A2D195E2A0311370864
:10048000A8002708A802031D462A2D1408000311FE
:1004900038083707A9002708A902031D512A2D1083
:1004A000AD1408000311390837073807AA002708D8
:1004B000AA02031D5C2AAD102D150800A701AD018D
:1004C0000C10080086160617861708002D18892AB2
:1004D000AD188A2A2D198B2A031105140517051545
:1004E0003708BB000630BB022708BB02031D792A70
:1004F00005110630BC002708BB02031D802A8510A9
:100500000930BD002708BB02031D872A851005148A
:100510000800080008000800340837303508383073
:0605200036083930080026
:04400E00D430FF3F6C
:00000001FF
