:060000000A128A11182902
:10000800F000030EF100031383120B188F210B1954
:100018001220710E8300F00E700E09008B2108105B
:1000280088100811881108128812081388137A1882
:100038002728FA182B287A192F28FA19332875082F
:100048008700081437287608870088143A28770824
:10005800870088163D2878088700081740287908FF
:100068008700881743280130FA0608000330FA068B
:1000780008000630FA0608000C30FA060800FA01F3
:0200880008006E
:100200008A010A140F3982073F3406345B344F34B5
:1002100066346D347D3407347F346F3477347C3406
:0802200039345E347934713485
:10023000031783168801890103138316051085109F
:1002400005118511051285120313831606148614F1
:1002500006158612061386130313831607108710DC
:1002600007118711071287120713871303138316C9
:1002700008108810081188110812881208138813B2
:1002800003138316091089100911031383168113B0
:10029000031383161514951415159511151295123F
:1002A000151395139521031383160330960003133A
:1002B00083120B1003138316811281110114811410
:1002C00001158B178B158B160B11031383128501E8
:1002D00086018701880189010313831274217B2120
:1002E000031383129C216C2905080F39F200050EB7
:1002F0000F39F300080072080021F500730800218F
:10030000F60024080021F70025080021F800230842
:100310000021F9000800FD3081000B110800061CC7
:10032000850A861C85030B100800031383160F1320
:100330008F160F120F140800A4010508A3006430E3
:1003400023020318A40A0318A30003189F29A50178
:100350000A3023020318A50A0318A3000318A829CA
:10036000031C08002008B52108000B1DB5298B21AE
:060370000800080008006F
:04400E00D430FF3F6C
:00000001FF
