:060000000A128A11182902
:10000800F000030EF100031383120B1866200B197E
:100018001F200C181420710E8300F00E700E0900BA
:1000280003138312E1308F00031383127C308E0098
:10003800AA0A0C1008007E21880126183328A61861
:10004800372826193B28A6193F28261A4328A61A16
:100058004728261B4B282E08870008144F282F08EE
:100068008700881452283108870008155528320857
:100078008700881558283308870008165B28340835
:10008800870088165E28280887000817612829082D
:100098008700881764280130A60608000330A606E2
:1000A80008000630A60608000C30A606080018301E
:1000B800A60608003030A60608006030A60608002C
:1000C800A6010800061CE121861CEB21061DD5218E
:0400D8000B10080001
:100200008A010A140F3982073F3406345B344F34B5
:1002100066346D347D3407347F346F3477347C3406
:0802200039345E347934713485
:10023000031783168801890103138316051085109F
:1002400005118511051285120313831606148614F1
:1002500006158612061386130313831607108710DC
:1002600007118711071287120713871303138316C9
:1002700008108810081188110812881208138813B2
:1002800003138316091089100911031383168113B0
:10029000031383161514951415159511151295123F
:1002A000151395138221031383160330960003134D
:1002B00083120B108B178B158B160B1103138316E0
:1002C00081128111011481140115031383129016F8
:1002D000101690101014031383124E3092000A303F
:1002E000A700031383128501860187018801890114
:1002F0008921F5219C21AF21C2217829FF3081007D
:100300000B110800031383160F138F160F120F140F
:100310000800A501A10103102708A5000A30A10AC1
:10032000A50203188F29A103A50721080021A80011
:1003300025080021A9000800A501A10103102B0830
:10034000A5000A30A10AA5020318A229A103A50746
:1003500021080021AE0025080021AF000800A501FA
:10036000A10103102C08A5000A30A10AA502031858
:10037000B529A103A50721080021B1002508002106
:10038000B2000800A501A10103102D08A5000A3044
:10039000A10AA5020318C829A103A5072108002165
:1003A000B30025080021B400080003138312A30A38
:1003B000031105302302031DDF290030A3002410A0
:1003C0000800A70A031115302702031DE9290A3086
:1003D000A700A4100800A703031109302702031D7A
:1003E000F3291430A700A41008003018042AB0180C
:1003F0000E2A3019182A03110530AB002A08AB0267
:10040000031D032A3014080003110A30AC002A0827
:10041000AC02031D0D2A3010B014080003110F3078
:10042000AD002A08AD02031D162AB01030150800D1
:0804300000302A300C10080016
:04400E00D430FF3F6C
:00000001FF
