:060000000A128A11182902
:10000800F000030EF100031383120B1866200B197E
:100018001F200C181420710E8300F00E700E0900BA
:1000280003138312E1308F00031383127C308E0098
:10003800A70A0C1008008C21880123183328A3185C
:10004800372823193B28A3193F28231A4328A31A22
:100058004728231B4B282B08870008144F282C08F7
:100068008700881452282E088700081555282F085D
:100078008700881558283008870008165B2831083B
:10008800870088165E282508870008176128260833
:100098008700881764280130A30608000330A306E8
:1000A80008000630A30608000C30A3060800183024
:1000B800A30608003030A30608006030A306080035
:1000C800A3010800061C6022861C6922061D17224F
:0400D8000B10080001
:100200008A010A140F3982073F3406345B344F34B5
:1002100066346D347D3407347F346F3477347C3406
:0802200039345E347934713485
:10023000031783168801890103138316051085109F
:1002400005118511051285120513851303138316F5
:100250000614861406150612861206138613031357
:1002600083160710871007118711071287120713CB
:1002700087130313831608108810081188110812B9
:10028000881208138813031383168113031383162C
:10029000151495141515951115129512151395131E
:1002A00090210313831607309600031383120B105B
:1002B0008B178B158B160B1103138316811281116B
:1002C0000114811401150313831290161016901057
:1002D0001014031383124E3092000A30A400B700AA
:1002E000B800B9000630C300C201031383128501B0
:1002F00086018701880189013A189721BA18AB2134
:100300003A19BF21BA190C229D2242188B29722258
:10031000D321E621F9217C29FF3081000B1108004F
:10032000031383160F138F160F120F140800A20168
:10033000A00103102408B400A2000A30A00AA202FF
:1003400003189E29A003A20720080021A500220867
:100350000021A6000800A201A00103102408B50096
:10036000A2000A30A00AA2020318B229A003A20721
:1003700020080021A50022080021A6000800A201F3
:10038000A00103102408B600A2000A30A00AA202AD
:100390000318C629A003A20720080021A5002208EF
:1003A0000021A6000800A201A00103102808A20055
:1003B0000A30A00AA2020318D929A003A207200824
:1003C0000021AB0022080021AC000800A201A0011E
:1003D00003102908A2000A30A00AA2020318EC297F
:1003E000A003A20720080021AE0022080021AF00D0
:1003F0000800A201A00103102A08A2000A30A00AE6
:10040000A2020318FF29A003A20720080021B000C0
:1004100022080021B10008000A300021A5000C309C
:100420000021A600061C6023861C59220800A10A90
:1004300032182E2AB2183C2A32194A2AB219592ADD
:1004400086120613861303110130B300210833020C
:10045000031D2D2A861632143A14080003110230A7
:10046000B30021083302031D3B2A861206173210FF
:10047000B2143A10BA14080003110330B300210873
:100480003302031D492A86160617B2103215BA1018
:100490003A15080003110430B30021083302031D8C
:1004A000562A8612061386173211B2153A11BA155A
:1004B0000800A501A6018613B201A101BA01080036
:1004C000A40A031115302402031D682A0A30A4006F
:1004D0000800A403031109302402031D712A1430FB
:1004E000A40008002D18832AAD188F2A2D19992AE7
:1004F00003113708A8002708A802031D822A2D141B
:100500000030A700080003113808A9002708A90235
:10051000031D8E2A2D10AD140030A7000800031112
:100520003908AA002708AA02031D982AAD102D1524
:100530000800A701AD010C1008003E18C62ABE181D
:10054000D72A3E19E42ABE19F62A3E1A072BBE1AEC
:10055000142B3E1B262BBE1B372B4018452B03119B
:1005600005108510051585150512851205178513CB
:1005700006123708BB000630BB023B08BF00270845
:10058000BB02031DC52A05113E1408000311051501
:10059000F830C100C10BCA2A051103303F07BC0067
:1005A0002708BC02031DD62A3E10BE140800031102
:1005B000851406303F07BD002708BD02031DE32A4E
:1005C000BE103E158510080003118511051485160F
:1005D0003808BB000630BB023B08BF002708BB023F
:1005E000031DF52A85123E11BE150800031185165C
:1005F000F830C100C10BFA2A851203303F07BC0056
:100600002708BC02031D062BBE113E16080003116D
:10061000051606303F07BD002708BD02031D132B3A
:100620003E12BE16051208000311051385150616A5
:100630003808BB004308BB023B08BF002708BB02C9
:10064000031D252B0612BE123E17080003110616C5
:10065000F830C100C10B2A2B061203303F07BC0043
:100660002708BC02031D362B3E13BE1708000311DA
:10067000851706303F07BD002708BD02031D442B28
:10068000BE134014851305170800BB01BC01BD0152
:10069000BF01BE01401083010800F830C100C10B4A
:1006A0004F2BF830C100C10B532B08005922AD016C
:1006B000BE01B201A701BA01A801A901AA0108005F
:1006C0000530C300421456233408B7003508B8007B
:1006D0003608B900F830C100C10B6C2B421008007D
:04400E00D430FF3F6C
:00000001FF
