:060000000A128A11182902
:10000800F000030EF1000313831279211020710E02
:100018008300F00E700E09008A210810881008115C
:10002800881108128812081388137A182528FA18D4
:1000380029287A192D28FA19312875088700881770
:100048003528760887000817382877088700881623
:100058003B287808870008173E2879088700881702
:1000680041280130FA0608000330FA060800063075
:0E007800FA0608000C30FA060800FA0108002B
:100200008A010A140F3982073F3406345B344F34B5
:1002100066346D347D3407347F346F3477347C3406
:0802200039345E347934713485
:10023000031783168801890103138316051085109F
:1002400005118511051285120313831606148614F1
:1002500006158612061386130313831607108710DC
:1002600007118711071287120713871303138316C9
:1002700008108810081188110812881208138813B2
:1002800003138316091089100911031383168113B0
:10029000031383161514951415159511151295123F
:1002A000151395139421031383160330960003133B
:1002B00083120B1003138316811281110114811410
:1002C00001158B178B158B160B11031383128501E8
:1002D00086018701880189012918A921A918B5215A
:1002E0002919BF21031383128321031383129B2136
:1002F0006C2903138312061D2914061CA914861CDD
:1003000029150B1008002A080021F50025080021F6
:10031000F6000800FD3081000B110800061C850A5C
:10032000861C85030B100800031383160F138F160A
:100330000F120F140800A4010508AA00A5010A3035
:100340002A020318A50A0318AA0003189F29031CF0
:10035000080003138312A80A031105302802031DA5
:10036000B3290030A80029100800AA0A031115308B
:100370002A02031DBD290A30AA00A9100800AA03F9
:10038000031109302A02031DC7291430AA00A9103D
:0E03900008000B1DC9298A210800080008007A
:04400E00D430FF3F6C
:00000001FF
