:060000000A128A11182902
:10000800F000030EF100031383120B1866200B197E
:100018001F200C181420710E8300F00E700E0900BA
:1000280003138312E1308F00031383127C308E0098
:10003800A70A0C1008008721880123183328A31861
:10004800372823193B28A3193F28231A4328A31A22
:100058004728231B4B282B08870008144F282C08F7
:100068008700881452282E088700081555282F085D
:100078008700881558283008870008165B2831083B
:10008800870088165E282508870008176128260833
:100098008700881764280130A30608000330A306E8
:1000A80008000630A30608000C30A3060800183024
:1000B800A30608003030A30608006030A306080035
:1000C800A3010800061C5922861C6222061D102264
:0400D8000B10080001
:100200008A010A140F3982073F3406345B344F34B5
:1002100066346D347D3407347F346F3477347C3406
:0802200039345E347934713485
:10023000031783168801890103138316051085109F
:1002400005118511051285120513851303138316F5
:100250000614861406150612861206138613031357
:1002600083160710871007118711071287120713CB
:1002700087130313831608108810081188110812B9
:10028000881208138813031383168113031383162C
:10029000151495141515951115129512151395131E
:1002A0008B210313831607309600031383120B1060
:1002B0008B178B158B160B1103138316811281116B
:1002C0000114811401150313831290161016901057
:1002D0001014031383124E3092000A30A400B700AA
:1002E000B800B900031383128501860187018801D4
:1002F00089013A189221BA18A6213A19BA21BA19D5
:10030000072296226B22CE21E121F4217929FF30A8
:1003100081000B110800031383160F138F160F12A1
:100320000F140800A201A00103102408B400A200C9
:100330000A30A00AA20203189929A003A2072008E4
:100340000021A50022080021A6000800A201A001AA
:1003500003102408B500A2000A30A00AA202031864
:10036000AD29A003A20720080021A5002208002132
:10037000A6000800A201A00103102408B600A200F4
:100380000A30A00AA2020318C129A003A20720086C
:100390000021A50022080021A6000800A201A0015A
:1003A00003102808A2000A30A00AA2020318D429C8
:1003B000A003A20720080021AB0022080021AC0006
:1003C0000800A201A00103102908A2000A30A00A17
:1003D000A2020318E729A003A20720080021AE000B
:1003E00022080021AF000800A201A00103102A0882
:1003F000A2000A30A00AA2020318FA29A003A20749
:1004000020080021B00022080021B10008000A30B5
:100410000021A5000C300021A60005185923080072
:10042000A10A3218272AB218352A3219432AB219DA
:10043000522A86120613861303110130B3002108D5
:100440003302031D262A861632143A1408000311BB
:100450000230B30021083302031D342A8612061726
:100460003210B2143A10BA14080003110330B3006A
:1004700021083302031D422A86160617B2103215D0
:10048000BA103A15080003110430B30021083302F2
:10049000031D4F2A8612061386173211B2153A1120
:1004A000BA150800A501A6018613B201A101BA017F
:1004B0000800A40A031115302402031D612A0A3022
:1004C000A4000800A403031109302402031D6A2AB2
:1004D0001430A40008002D187C2AAD18882A2D1984
:1004E000922A03113708A8002708A802031D7B2AB7
:1004F0002D140030A700080003113808A9002708B0
:10050000A902031D872A2D10AD140030A700080092
:1005100003113908AA002708AA02031D912AAD1069
:100520002D150800A701AD010C1008003E18BF2AC8
:10053000BE18D02A3E19DD2ABE19EF2A3E1A002B1A
:10054000BE1A0D2B3E1B1F2BBE1B302B40183E2B03
:10055000031105108510051585150512851205175F
:10056000851306123708BB000630BB023B08BF00EC
:100570002708BB02031DBE2A05113E140800031103
:100580000515F830C100C10BC32A051103303F0720
:10059000BC002708BC02031DCF2A3E10BE14080071
:1005A0000311851406303F07BD002708BD02031D57
:1005B000DC2ABE103E1585100800031185110514B4
:1005C00085163808BB000630BB023B08BF00270871
:1005D000BB02031DEE2A85123E11BE150800031151
:1005E0008516F830C100C10BF32A851203303F078E
:1005F000BC002708BC02031DFF2ABE113E160800DE
:100600000311051606303F07BD002708BD02031D74
:100610000C2B3E12BE16051208000311051385159A
:1006200006163808BB000530BB023B08BF00270890
:10063000BB02031D1E2B0612BE123E17080003113B
:100640000616F830C100C10B232B061203303F07FA
:10065000BC002708BC02031D2F2B3E13BE17080049
:100660000311851706303F07BD002708BD02031D93
:100670003D2BBE134014851305170800BB01BC01B8
:10068000BD01BF01BE01401083010800F830C10068
:10069000C10B482BF830C100C10B4C2B0800522273
:1006A000AD01BE01B201A701BA01A801A901AA01C9
:1006B00008004F233408B7003508B8003608B900E1
:0206C000080030
:04400E00D430FF3F6C
:00000001FF
