:060000000A128A11182902
:10000800F000030EF100031383120B1866200B197E
:100018001F200C181420710E8300F00E700E0900BA
:1000280003138312E1308F00031383127C308E0098
:10003800A70A0C1008008A21880123183328A3185E
:10004800372823193B28A3193F28231A4328A31A22
:100058004728231B4B282B08870008144F282C08F7
:100068008700881452282E088700081555282F085D
:100078008700881558283008870008165B2831083B
:10008800870088165E282508870008176128260833
:100098008700881764280130A30608000330A306E8
:1000A80008000630A30608000C30A3060800183024
:1000B800A30608003030A30608006030A306080035
:1000C800A3010800061C2A22861C3322061DE821EB
:0400D8000B10080001
:100200008A010A140F3982073F3406345B344F34B5
:1002100066346D347D3407347F346F3477347C3406
:0802200039345E347934713485
:10023000031783168801890103138316051085109F
:1002400005118511051285120513851303138316F5
:100250000614861406150616861206138613031353
:1002600083160710871007118711071287120713CB
:1002700087130313831608108810081188110812B9
:10028000881208138813031383168113031383162C
:10029000151495141515951115129512151395131E
:1002A0008E210313831607309600031383120B105D
:1002B0008B178B158B160B1103138316811281116B
:1002C0000114811401150313831290161016901057
:1002D0001014031383124E3092000A30A40005302C
:1002E000B7000530B8000530B9000313831285014B
:1002F000860187018801890103138312051485157E
:1003000005173A189521BA18E1213C22A821BB21F2
:10031000CE217C29FF3081000B11080003138316C6
:100320000F138F160F120F140800A201A001031063
:100330002408A2000A30A00AA20203189B29A003E5
:10034000A20720080021A50022080021A60008001D
:10035000A201A00103102808A2000A30A00AA202EC
:100360000318AE29A003A20720080021AB00220831
:100370000021AC000800A201A00103102908A2007E
:100380000A30A00AA2020318C129A003A20720086C
:100390000021AE0022080021AF000800A201A00148
:1003A00003102A08A2000A30A00AA2020318D429C6
:1003B000A003A20720080021B00022080021B100FC
:1003C00008000A300021A5000C300021A60008001A
:1003D000A10A3218FC29B218082A3219142AB219B3
:1003E000232A03110130B30021083302031DFA2927
:1003F000861632143A14080003110230B3002108A3
:100400003302031D072A861206173210B2140800A1
:1004100003110330B30021083302031D132A86168B
:100420000617B2103215080003110430B30021087A
:100430003302031D202A8612061386173211B215C5
:100440003A10BA140800A501A6018613B201A10151
:10045000BA010800A40A031115302402031D322A30
:100460000A30A4000800A403031109302402031D6C
:100470003B2A1430A40008002D184B2AAD18562A28
:100480002D19622A03113708A8002708A802031DA6
:100490004A2A2D140800031138083707A900270835
:1004A000A902031D552A2D10AD14080003113908A7
:1004B00037073807AA002708AA02031D602AAD10D3
:1004C0002D150800A701AD010C10080086160617AF
:1004D000861708002D18712AAD18722A2D19732A53
:1004E00008000800080008003408373035083830A4
:0604F00036083930080057
:04400E00D430FF3F6C
:00000001FF
