:060000000A128A11182902
:10000800F000030EF100031383120B1866200B197E
:100018001F200C181420710E8300F00E700E0900BA
:1000280003138312E1308F00031383127C308E0098
:10003800A70A0C1008008721880123183328A31861
:10004800372823193B28A3193F28231A4328A31A22
:100058004728231B4B282B08870008144F282C08F7
:100068008700881452282E088700081555282F085D
:100078008700881558283008870008165B2831083B
:10008800870088165E282508870008176128260833
:100098008700881764280130A30608000330A306E8
:1000A80008000630A30608000C30A3060800183024
:1000B800A30608003030A30608006030A306080035
:1000C800A3010800061C5E22861C6722061D182252
:0400D8000B10080001
:100200008A010A140F3982073F3406345B344F34B5
:1002100066346D347D3407347F346F3477347C3406
:0802200039345E347934713485
:10023000031783168801890103138316051085109F
:1002400005118511051285120513851303138316F5
:100250000614861406150612861206138613031357
:1002600083160710871007118711071287120713CB
:1002700087130313831608108810081188110812B9
:10028000881208138813031383168113031383162C
:10029000151495141515951115129512151395131E
:1002A0008B210313831607309600031383120B1060
:1002B0008B178B158B160B1103138316811281116B
:1002C0000114811401150313831290161016901057
:1002D0001014031383124E3092000A30A400B700AA
:1002E000B800B900031383128501860187018801D4
:1002F00089013A189221BA18A6213A19BA21BA19D5
:1003000007229B227022CE21E121F4217929FF309E
:1003100081000B110800031383160F138F160F12A1
:100320000F140800A201A00103102408B400A200C9
:100330000A30A00AA20203189929A003A2072008E4
:100340000021A50022080021A6000800A201A001AA
:1003500003102408B500A2000A30A00AA202031864
:10036000AD29A003A20720080021A5002208002132
:10037000A6000800A201A00103102408B600A200F4
:100380000A30A00AA2020318C129A003A20720086C
:100390000021A50022080021A6000800A201A0015A
:1003A00003102808A2000A30A00AA2020318D429C8
:1003B000A003A20720080021AB0022080021AC0006
:1003C0000800A201A00103102908A2000A30A00A17
:1003D000A2020318E729A003A20720080021AE000B
:1003E00022080021AF000800A201A00103102A0882
:1003F000A2000A30A00AA2020318FA29A003A20749
:1004000020080021B00022080021B10008000A30B5
:100410000021A5000C300021A600051810220800BC
:100420004A233408B7003508B8003608B900080078
:10043000A10A32182C2AB2183A2A3219482AB219BB
:10044000572A03110130B30021083302031D2B2A60
:10045000861632143A14080003110230B300210842
:100460003302031D392A861206173210B2143A10CD
:10047000BA14080003110330B30021083302031D2E
:10048000472A86160617B2103215BA103A15080018
:1004900003110430B30021083302031D542A8612CD
:1004A000061386173211B2153A11BA150800A501C4
:1004B000A6018613B201A101BA010800A40A031122
:1004C00015302402031D662A0A30A4000800A40384
:1004D000031109302402031D6F2A1430A400080000
:1004E0002D18812AAD188D2A2D19972A0311370846
:1004F000A8002708A802031D802A2D140030A70099
:10050000080003113808A9002708A902031D8C2A36
:100510002D10AD140030A700080003113908AA00FF
:100520002708AA02031D962AAD102D150800A70161
:10053000AD010C1008003E18C42ABE18D42A3E197A
:10054000E02ABE19F22A3E1A022BBE1A0E2B3E1BBF
:10055000202BBE1B302B40183D2B0311051085109E
:10056000051585150512851205178513061237081E
:10057000BB000630BB023B08BF002708BB02031DBF
:10058000C32A05113E1408000515F830C100C10B3F
:10059000C72A051103303F07BC002708BC02031D12
:1005A000D32A3E10BE140800851406303F07BD0054
:1005B0002708BD02031DDF2ABE103E158510080066
:1005C00003118511051485163808BB000630BB02DF
:1005D0003B08BF002708BB02031DF12A85123E110C
:1005E000BE1508008516F830C100C10BF52A85122A
:1005F00003303F07BC002708BC02031D012BBE11BE
:100600003E160800051606303F07BD002708BD024C
:10061000031D0D2B3E12BE16051208000311051313
:10062000851506163808BB000630BB023B08BF0024
:100630002708BB02031D1F2B0612BE123E1708001F
:100640000616F830C100C10B232B061203303F07FA
:10065000BC002708BC02031D2F2B3E13BE17080049
:10066000851706303F07BD002708BD02031D3C2B40
:10067000BE134014851305170800BF01BE014010CA
:100680000800F830C100C10B432BF830C100C10B8A
:10069000472B0800AD01BE01B201A101572208009D
:04400E00D430FF3F6C
:00000001FF
